:040000000C942A0032
:100004000C9400000C9400000C9400000C9400006C
:100014000C9400000C9400000C9400000C9400005C
:100024000C9400000C9400000C9400000C9400004C
:100034000C9400000C9400000C9400000C9400003C
:100044000C9400000C9400000C9400000C9400002C
:10005400F894EE27ECBBF1E0FBBFEBBFE5BF8DE00E
:10006400A2E0BB27ED938A95E9F780E094E0A0E64F
:10007400ED930197E9F7EFE5EDBFE4E0EEBFC0E6ED
:10008400D1E00C94450036D000E011E031E0A4E664
:10009400B0E00E9490001130A9F4083010F4003050
:1000A40008F401C0030F073011F43FEF03C0003020
:1000B40009F431E0EFEFEA93E02FA1E00E949A0007
:1000C400AE2F22D0E4CFFFCFAA931A930A9310E065
:1000D40000E000E0083048F4110FEA81E1701E2BC3
:1000E400EA81E695EA830F5FF5CFE12F1981088154
:1000F40023960895EFEFE7BBE1BB01D00895EFEF3E
:10010400E8BBE0E0E2BB0895AA93A981DDDFE095B6
:10011400E8BBA881D9DFE2BB22960895109639F096
:10012400A89580ED97E00197F1F71197C9F7089525
:10013400EE230E2EEA2F19F0EE0F0A94E9F7089534
:00000001FF
