:0C0000000C942A000C9400000C940000EA
:10000C000C9400000C9400000C9400000C94000064
:10001C000C9400000C9400000C9400000C94000054
:10002C000C9400000C9400000C9400000C94000044
:10003C000C9400000C9400000C9400000C94000034
:10004C000C9400000C940000F894EE27ECBBF1E04B
:10005C00FBBFEBBFE5BF8DE0A2E0BB27ED938A951C
:10006C00E9F780E094E0A0E6ED930197E9F7EFE57E
:10007C00EDBFE4E0EEBFC0E6D1E00C9445000CD03F
:10008C0000E011E031E0A4E6B0E00E945C00E2B3D5
:10009C00E095E2BBF8CFFFCFEFEFE7BBE1BB01D0C0
:1000AC000895EFEFE8BBE0E0E2BB0895109639F05D
:1000BC00A89580ED97E00197F1F71197C9F708958E
:00000001FF
