:0A0000000C942A000C9400000C94EC
:10000A0000000C9400000C9400000C9400000C9466
:10001A0000000C9400000C9400000C9400000C9456
:10002A0000000C9400000C9400000C9400000C9446
:10003A0000000C9400000C9400000C9400000C9436
:10004A0000000C9400000C940000F894EE27ECBB1E
:10005A00F1E0FBBFEBBFE5BF8DE0A2E0BB27ED936C
:10006A008A95E9F780E094E0A0E6ED930197E9F735
:10007A00EFE5EDBFE4E0EEBFC0E6D1E00C94450049
:10008A001BD0E1E8EA93A0E821D0FFCFAA931A9304
:10009A000A9310E000E000E0083048F4110FEA810A
:1000AA00E1701E2BEA81E695EA830F5FF5CFE12F17
:1000BA001981088123960895EFEFE7BBE1BB01D0D0
:1000CA000895E0E0E8BBEFEFE2BB0895AA93A981A7
:1000DA00DDDFE095E8BBA881D9DFE2BB229608956F
:00000001FF
